:100000002EC100000C94270E0C94FC0D0C94D10D05
:100010000C94A60D0C947B0D0C94500D0C94250D96
:100020000C94FA0C4DC100004BC1000049C1000006
:1000300047C100000C94DC0843C1000041C100002E
:100040003FC100000C94AF083BC1000039C1000063
:1000500037C1000035C1000033C100000C94B00C62
:100060002FC100000C94210F0C94F80E29C1000040
:1000700027C1000025C1000023C1000021C10000EC
:100080000C9482081DC100001BC1000019C10000B2
:1000900017C1000015C1000013C1000011C100000C
:1000A0000FC100000DC100000C94550809C10000EB
:1000B00007C1000005C1000003C10000C9C700005E
:1000C000FFC00000FDC00000FBC000000C94CE0E7D
:1000D0000C94A50EF5C000000C947B0E0C94520EEF
:1000E000EFC00000040C090C0E0C180C220C9B0C29
:1000F0002C0C340C3C0C460C500C5A0C690C730C38
:100100009B0C7D0C870C910C98169B168A168E16EC
:100110009416D2169F16A316A916AD16B116B716C9
:10012000BB16BF16D216C516C916CD16021709176B
:10013000E616ED16F416FB1610171717000021002F
:10014000240027002A002D003000330001010000A8
:10015000040107010A0100002200250028002B00ED
:100160002E003100340002010000050108010B01DE
:10017000000020002300260029002C002F00320060
:100180000001000003010601090105050505070539
:1001900008080808020202020A0A08080404040403
:1001A000010101010101010103030303030303032F
:1001B000040707070C0C0C0C0C0C0C0C02020202BE
:1001C00006060606060606060B0B0B0B0B0B0B0BA7
:1001D0000102102020080810204010204080020159
:1001E000020108040201010204081020408080403E
:1001F000201008040201800402018040201008043D
:1002000002010804020101020408102040800102DA
:1002100004081020408000000A0B02090C0D0E0893
:1002200007030401000000000000000000000000BF
:1002300000000000000000000000000000000000BE
:10024000000012111000000000000000000000007B
:100250000000000000000000000000009E1D1124AE
:100260001FBECFEFD1E2DEBFCDBF00E00CBF15E077
:10027000A0E0B2E0EAE9FBE400E00BBF02C00790B7
:100280000D92AC3AB107D9F720E1ACEAB5E001C074
:100290001D92AE31B207E1F711E0CFE2D1E000E00C
:1002A00006C021970109802FFE010E94A123CE32B2
:1002B000D10780E00807A9F70E9461180C94CB25AC
:1002C0009FCEFC01918D228D892F90E0805C9F4F05
:1002D000821B91098F739927089580E090E0892B04
:1002E00021F00E94290B81111DC080E090E0892B34
:1002F00041F080E090E0892B21F00E940000811104
:1003000014C080E090E0892B21F00E941F0B811126
:100310000FC080E090E0892B81F00E94150B8111C5
:100320000AC008950E940000E0CF0E940000E9CFBB
:100330000E940000EECF0C940000089580E090E051
:1003400008958A579B4FFC01808108958CE493E0C7
:10035000089584E492E0089583E090E008958DE6A6
:1003600093E008958EE292E00895AF92BF92CF920B
:10037000DF92EF92FF920F931F93CF93DF9300D002
:100380001F921F92CDB7DEB7643671053CF0FC01B9
:10039000EA57FB4F2081222309F477C0DA017B0161
:1003A0008C01BC01615E7D4FED91FC910190F0816B
:1003B000E02DCA011995680128EEC21A2DEFD20A64
:1003C0002FEFD6012C93F801E75EFD4F2EEF20832F
:1003D00031968083319690833196292F280F20956E
:1003E00020833196E0821696FC9245E050E020E0B2
:1003F00030E0DC011696A417B50734F06191260FA2
:10040000311D4F5F5F4FF7CF7C01B8E0EB0EF11C61
:10041000800F911FFC01E15EFD4F20952083E1E0FC
:10042000EE16E2E0FE06BCF45601C5018C199D09EA
:100430008E159F056CF5D80112968D919C9113979E
:10044000F50161915F01DC01ED91FC910190F0817A
:10045000E02D1995EACF86E292E09A83898383E0C2
:100460008B838EE893E09D838C83D801ED91FC9182
:100470000190F081E02DAE014F5F5F4F67E070E0CB
:10048000C80119958FEF9FEF04C080E090E001C094
:10049000C7010F900F900F900F900F90DF91CF91A9
:1004A0001F910F91FF90EF90DF90CF90BF90AF9092
:1004B0000895CF93DF93DC01FB0112968D919C91FF
:1004C0001397009729F4C091F70DD091F80D06C04D
:1004D000019789F4C091F50DD091F60D14968D9188
:1004E0009D910D90BC91A02D88839983AA83BB8395
:1004F00081E0828301C01282DF91CF910895CF9372
:10050000DF93FC01DB0182819381009729F4C09184
:10051000FB0DD091FC0D06C0019701F5C091F90DBE
:10052000D091FA0D44815581668177814883598342
:100530006A837B8344855585668577854C835D8397
:100540006E837F834085518562857385488759878F
:100550006A877B8781E012968C9302C012961C9268
:10056000DF91CF91089587EC93E00895FB012081FE
:10057000FC01228381E090E00895FC018281FB016F
:10058000808381E090E00895FC01DB012C9130E054
:100590003383228311968C911197382B33832283D6
:1005A00012968D919D910D90BC91A02D8483958381
:1005B000A683B78386E090E00895DC01FB011296E4
:1005C0008C911297808313968C9113978183149644
:1005D0003C91149715962C91159716969C91169709
:1005E00017968C91328323839483858386E090E0F1
:1005F0000895FB012081FC01228381E090E00895B1
:10060000FC018281FB01808381E090E00895FC0180
:10061000DB012C9130E03383228311968C9111976A
:10062000382B3383228312964D915D916D917C918D
:100630001597448355836683778316964D915D9114
:100640006D917C91199740875187628773871A96BD
:100650008D919D910D90BC91A02D84879587A68743
:10066000B7878EE090E00895DC01FB0112968C9133
:100670001297808313968C911397818314963C91E3
:10068000149715962C91159716969C911697179678
:100690008C911797328323839483858318963C919A
:1006A000189719962C9119971A969C911A971B9640
:1006B0008C911B9736832783908781871C963C916A
:1006C0001C971D962C911D971E969C911E971F9608
:1006D0008C9132872387948785878EE090E00895F8
:1006E00088EE93E0089589E094E0089584E294E030
:1006F000089585E494E00895CF93DF93DB01EA0148
:10070000FC01E755F94F208127FF04C011961C9288
:100710001E920DC040815CE0589F9001599F300DA2
:100720001124240F311D47FD3A9537FD208120818A
:100730002F5F20834CE0489F9001499F300D11248A
:100740008081A901480F511D87FD5A9557FF1EC092
:1007500080818C30DCF44D915C918081B901680F0F
:10076000711D87FD7A95CB01DB01AA0FBB1F8A0F94
:100770009B1FDC01A75EB94F11968D919C9112973A
:10078000840F951F99838883808111C08D919C91DE
:100790001197049680349C4918F480E49CE903C0C6
:1007A0008D919C910496998388838FEF8083DF914C
:1007B000CF91089580916C0E0E946F17E091F10D1A
:1007C000F091F20D892B41F480819181A281B38156
:1007D0000197A109B10907C080819181A281B381EC
:1007E0000196A11DB11D80839183A283B3830895D7
:1007F0008091ED0E0E946F17E091F30DF091F40DD2
:10080000892B41F480819181A281B3810196A11D40
:10081000B11D07C080819181A281B3810197A10997
:10082000B10980839183A283B3830895EF92FF92ED
:100830000F931F93CF93DF93EC017C0186E0E80ECA
:10084000F11CC701E4DE8E010A5E1F4FEBA1FCA183
:10085000B801C7011995B801CE014996DF91CF9132
:100860001F910F91FF90EF900C946F16EF92FF92F3
:100870000F931F93CF93DF93EC017C0186E0E80E8A
:10088000F11CC70181DE8E01025F1F4FEB8DFC8DD5
:10089000B801C7011995B801CE014196DF91CF91FA
:1008A0001F910F91FF90EF900C946F162F923F9233
:1008B0004F925F926F927F928F929F92AF92BF9270
:1008C000CF92DF92EF92FF920F931F93CF93DF931C
:1008D000CDB7DEB7A6970FB6F894DEBF0FBECDBF7B
:1008E0008C010E94A40C4B015C01980125573B4FE1
:1008F0003E8B2D8BF90180819181A281B381A5016D
:100900009401281B390B4A0B5B0BDA01C901893FA3
:100910009A42A105B10510F035971082180144E8FC
:10092000241A4BEF340AD1018D919C91892B79F0D7
:10093000F801E157FB4F80819181A281B381881535
:100940009905AA05BB0518F4F101118210829801DE
:100950002C573B4F3A8B298BA80140585B4F5C8B3F
:100960004B8BC8014896988F8F8BD801AA57BB4FE5
:10097000BC8FAB8FF801EC56FB4FFE8FED8F215FE4
:100980003F4F38A32F8F42505109588B4F878659BC
:100990009B4F9A8F898F1996BAA3A9A3A501940199
:1009A0002C5E3F4F4F4F5F4F2BA33CA34DA35EA345
:1009B000F80184899589A689B789892B8A2B8B2B85
:1009C00081F4D80112968D919C911397DC01ED91E1
:1009D000FC910284F385E02D19959C0197FF13C0CB
:1009E00088C2B2D7DC01CB0188199909AA09BB09D1
:1009F000F801C488D588E688F788C816D906EA06BB
:100A0000FB06F8F69DC2A989BA898D919C91119730
:100A1000820F931F8D939C93F10140815181473048
:100A20005105D9F4A98DBA8D8D919C911197AC0186
:100A30004F5F5F4F4D935C93F801E80FF91F208FD4
:100A4000EF85F88980819181019791838083892B3B
:100A500009F0AECF88E090E031C04115510531F585
:100A60002F3F310589F481E090E0F101918380838B
:100A70002BA13CA14DA15EA1A9A1BAA12D933D93AB
:100A80004D935C93139794CF5FD7DC01CB0188190A
:100A90009909AA09BB0989389341A105B10508F450
:100AA00087CFF801EA57FB4F10824AC24130510507
:100AB000A9F42E3F310531F482E090E0D1018D930D
:100AC0009C9376CFF10111821082AB8DBC8D8C91FD
:100AD00081116ECFC8010E941E176ACF42305105A6
:100AE00091F4EF85F88931832083A98DBA8D1D9209
:100AF0001C9283E090E0F10191838083A989BA89F7
:100B00002D933C9355CF4330510569F4322F222762
:100B1000EF85F88980819181280F391F31832083E7
:100B200084E090E0CBCF4430510581F460E071E087
:100B30000E948E238F3F910531F485E090E0F10112
:100B40009183808335CF1182108232CF4530510599
:100B500071F4EB89FC893183208386E090E0D10138
:100B60008D939C93E989FA893183208321CF463084
:100B70005105A9F4322F2227AB89BC898D919C9114
:100B80001197280F391F2D933C9387E090E0F101D6
:100B900091838083AF85B8898D919C9158CF4830DF
:100BA000510509F005CFF1011182108260E071E07A
:100BB0000E948E238F3F910509F0FACEAB89BC8944
:100BC0008D919C91009709F0C6C0C8010E941E1724
:100BD0008AE192E09A8389831C821B8286EC93E0EF
:100BE0009E838D8398878F839A8789871B861C862F
:100BF0001D861E866801B8EECB1ABBEFDB0A7801B2
:100C0000E6EBEE1AEBEFFE0A412C22E0522E612CAD
:100C1000712CD601ED91FC913097A9F184819581D9
:100C20009C838B83808191819E838D83828193813C
:100C3000DC01ED91FC910480F581E02D19959887F8
:100C40008F83D601ED91FC9182819381DC01ED913E
:100C5000FC910680F781E02D19959A8789874B864C
:100C60005C866D867E86D601ED91FC9160857185EE
:100C7000D801ED91FC910190F081E02DAE014F5F24
:100C80005F4FC8011995B2E0CB0ED11CEC14FD04E6
:100C900009F0BFCF412C92E0592E612C712CF70145
:100CA000A081B1811097E1F112968D919C911397DB
:100CB0009C838B8314968D919C9115979E838D8335
:100CC000ED91FC9111970480F581E02DCD011995EE
:100CD00098878F83D7018D919C91DC01ED91FC91D8
:100CE0000680F781E02D19959A8789874B865C8667
:100CF0006D867E86D801ED91FC91C080D180F70190
:100D000080819181DC01ED91FC910280F381E02DE5
:100D10001995AE014F5F5F4FBC01C801F6011995EF
:100D2000F2E0EF0EF11CE214F30409F0B8CFF80181
:100D3000EA57FB4F81E08083319680829182A282C4
:100D4000B382AD89BE898D929D92AD92BC9213976C
:100D50008FEF9FEFFAC08A30910509F09FC088E9B4
:100D600092E09A8389831B821C821D821E821F82CD
:100D7000188619861A86E8D5F801C084D184E284E1
:100D8000F3849B01AC012C193D094E095F096901EF
:100D90007A016F89788DCE0101960E947010C7018B
:100DA000B60128EE33E040E050E00E944C22CB80B8
:100DB000DC80ED80FE80C20ED31EE41EF51ECB82C9
:100DC000DC82ED82FE829B01AC0160E472E48FE084
:100DD00090E00E947F23CF80D884E984FA84DC01EC
:100DE000CB018C0D9D1DAE1DBF1D8F839887A987DC
:100DF000BA87AAD5CF80D884E984FA8436E3D31A97
:100E000035E6E30A34ECF30A28EE33E040E050E044
:100E10000E944C2229013A019B01AC0160E472E47A
:100E20008FE090E00E947F23A7019601261B370BDD
:100E3000480B590BCA01B901CB80DC80ED80FE80E4
:100E400031E0C31AD108E108F108A701960124197D
:100E500035094609570929013A0120E03AEC4AE9E7
:100E60005BE30E944C2273016201C20ED31EE41E9A
:100E7000F51ED8011C96CD92DD92ED92FC921F9743
:100E8000F801608B718B828B938B5ED5AD89BE89A7
:100E90006D937D938D939C9313978ACD86309105A6
:100EA00059F46F89788D8D8D9E8D0E94B41481E0E8
:100EB000EF8DF8A180837CCD8B30910521F4AB8D33
:100EC000BC8D1C9275CDFC01EF53FE4FEE0FFF1F42
:100ED000E00FF11F80819181009709F469CDDC0159
:100EE000ED91FC910190F081E02D6F89788D19953D
:100EF0005FCDF801EA57FB4F8081882321F178010B
:100F0000B9E7EB1ABBEFFB0AF70180819181A2815F
:100F1000B381A5019401281B390B4A0B5B0BDA0145
:100F2000C901853C9940A105B10568F0C8010E943E
:100F30001E17D7018D929D92AD92BC92139703C05C
:100F40008EEF9FEF02C080E090E0A6960FB6F89477
:100F5000DEBF0FBECDBFDF91CF911F910F91FF90EC
:100F6000EF90DF90CF90BF90AF909F908F907F9049
:100F70006F905F904F903F902F900895EF92FF9267
:100F80000F931F93CF93DF937C018B0102960E94F6
:100F9000DA10EC01B801680F791FC7014296B7D784
:100FA000C80FD91FB8016C0F7D1FC701C696AFD7F8
:100FB0008C0F9D1FDF91CF911F910F91FF90EF90AC
:100FC0000895EF92FF920F931F93CF93DF937C01CD
:100FD0008B0102960E94D512EC01B801680F791FAF
:100FE000C70142960E941910C80FD91FB8016C0F93
:100FF0007D1FC701C6960E9419108C0F9D1FDF919F
:10100000CF911F910F91FF90EF900895FC01848D77
:10101000DF01A80FB11DA35ABF4F2C91848D90E022
:1010200001968F739927848FA689B7892C93A089FD
:10103000B1898C91837080648C93938D848D981387
:1010400006C00288F389E02D80818F7D808308951A
:101050001F920F920FB60F9211240BB60F922F937F
:101060003F934F935F936F937F938F939F93AF9330
:10107000BF93EF93FF9348E251E064E271E080E0B8
:1010800090E03ADBFF91EF91BF91AF919F918F91EB
:101090007F916F915F914F913F912F910F900BBE78
:1010A0000F900FBE0F901F9018951F920F920FB6C2
:1010B0000F9211240BB60F922F933F934F935F9390
:1010C0006F937F938F939F93AF93BF93EF93FF9310
:1010D00048EA50E064EA70E083E090E00DDBFF91C5
:1010E000EF91BF91AF919F918F917F916F915F91A0
:1010F0004F913F912F910F900BBE0F900FBE0F900D
:101100001F9018951F920F920FB60F9211240BB6D5
:101110000F922F933F934F935F936F937F938F9390
:101120009F93AF93BF93EF93FF9348E950E064E937
:1011300070E082E090E0E0DAFF91EF91BF91AF9133
:101140009F918F917F916F915F914F913F912F91DF
:101150000F900BBE0F900FBE0F901F9018951F920F
:101160000F920FB60F9211240BB60F922F933F934D
:101170004F935F936F937F938F939F93AF93BF939F
:10118000EF93FF9348E850E064E870E081E090E07E
:10119000B3DAFF91EF91BF91AF919F918F917F91C2
:1011A0006F915F914F913F912F910F900BBE0F90D8
:1011B0000FBE0F901F9018951F920F920FB60F92AF
:1011C00011240BB60F920F931F932F933F934F93BE
:1011D0005F936F937F938F939F93AF93BF93CF93BF
:1011E000EF93FF9382E00E946F17C82F8091B205A2
:1011F0009091B30501969093B3058093B2058091C9
:101200001806843618F085E08093AD058091AD0511
:10121000833079F018F4823039F070C0843011F1E5
:10122000853009F449C06AC0C11168C0109218061F
:1012300029C0C13009F062C0E091180681E08E0F2C
:1012400080931806F0E08091B2059091B305E455C3
:10125000FA4F80871092B3051092B20584E0809314
:10126000AD054CC0C11114C0E091180681E08E0F8D
:1012700080931806F0E08091B2059091B305E45593
:10128000FA4F80871092B3051092B20583E0E7CF42
:101290008091B2059091B3058536910578F185E08E
:1012A0008093AD0551D36093AE057093AF058093E5
:1012B000B0059093B10522C047D30091AE051091BF
:1012C000AF052091B0053091B105DC01CB01801B49
:1012D000910BA20BB30B893C9105A105B10540F020
:1012E000109218061092B3051092B20582E0B7CFA3
:1012F000C11104C01092B3051092B205FF91EF9195
:10130000CF91BF91AF919F918F917F916F915F919D
:101310004F913F912F911F910F910F900BBE0F9006
:101320000FBE0F901F901895EF92FF920F931F938F
:10133000CF93DF93FC016F3F710519F014F06FEF4D
:1013400070E0EB0161307F4F14F4C1E0DFEF808586
:1013500091858C179D07C9F1D187C087D583C48338
:10136000DF01AF58BF4FCF018E589F4F7C018F01D7
:1013700000591F4FD7FF12C060E08C910E94971751
:101380008FE090E00197F1F761E0F70180810E9422
:101390009717662777276C1B7D0B0EC061E08C9139
:1013A0000E9497178FE090E00197F1F760E0F70156
:1013B00080810E949717BE01F8018081DF91CF9153
:1013C0001F910F91FF90EF90F7C1DF91CF911F9187
:1013D0000F91FF90EF900895CF92DF92EF92FF92DE
:1013E000FC011082118212821382DB0120E030E0C6
:1013F0004D9150E0022E02C0440F551F0A94E2F7AF
:10140000052E000C660B770BC080D180E280F38044
:101410004C295D296E297F29408351836283738320
:10142000285F3F4F2032310519F7FF90EF90DF9092
:10143000CF900895CF92DF92EF92FF9220E030E0BC
:101440006A017B01022E04C0F694E794D794C794F6
:101450000A94D2F7FC01C192CF01285F3F4F20329E
:10146000310571F7FF90EF90DF90CF9008958F9244
:101470009F92AF92BF92CF92DF92EF92FF92CF9363
:10148000DF93EC01688179818A819B810E942F2101
:101490002C813D814E815F810E94E2226B017C01A3
:1014A000288539854A855B850E947D2220E034E2CB
:1014B00044E759E40E948E2120E030E44CE156E4F8
:1014C0000E94E2224B015C01C886D986EA86FB862F
:1014D00023E333E343E75FE36C857D858E859F855A
:1014E0000E948E216B017C012DEC3CEC4CE45DE311
:1014F000C501B4010E948E219B01AC01C701B60158
:101500000E947E226C877D878E879F87DF91CF9197
:10151000FF90EF90DF90CF90BF90AF909F908F9013
:1015200008953FB7F8948091BE069091BF06A091B0
:10153000C006B091C10626B5A89B05C02F3F19F083
:101540000196A11DB11D3FBFBA2FA92F982F882743
:10155000820F911DA11DB11DBC01CD0142E0660F9E
:10156000771F881F991F4A95D1F708950895CF9244
:10157000DF92EF92FF920F931F93CF93DF936C0153
:101580007A018B01C0E0D0E0CE15DF0581F0D801F3
:101590006D918D01D601ED91FC910190F081E02DCE
:1015A000C6011995892B11F02196EECF7E01C70156
:1015B000DF91CF911F910F91FF90EF90DF90CF902F
:1015C00008950895FC01538D448D252F30E0842F1C
:1015D00090E0821B930B541710F0CF96089501975B
:1015E0000895FC01918D828D981761F0828DDF0145
:1015F000A80FB11D5D968C91928D9F5F9F73928F06
:1016000090E008958FEF9FEF0895FC01918D828DFA
:10161000981731F0828DE80FF11D858D90E00895C7
:101620008FEF9FEF08950E94BE2582EC96E00E9406
:10163000610121E0892B09F420E0822F08958FE5D4
:1016400097E00E94610121E0892B09F420E0822FBC
:1016500008958CEF97E00E94610121E0892B09F445
:1016600020E0822F0895EF92FF920F931F93CF9364
:10167000DF93EC0181E0888F9B8D8C8D981305C0E2
:10168000E889F989808185FD25C0F62E0B8D10E053
:101690000F5F1F4F0F731127E02E8C8DE8120BC0C8
:1016A0000FB607FCFACFE889F989808185FFF5CF6D
:1016B000CE01ACDCF2CF8B8DFE01E80FF11DE35AB9
:1016C000FF4FF0829FB7F8940B8FEA89FB898081E6
:1016D00080620AC09FB7F894EE89FF896083E88929
:1016E000F98980818370806480839FBF81E090E06E
:1016F000DF91CF911F910F91FF90EF900895CF93BD
:10170000DF93EC01888D8823C1F0EA89FB89808111
:1017100085FD05C0A889B9898C9186FD0EC00FB6DC
:1017200007FCF5CF808185FFF2CFA889B9898C911C
:1017300085FFEDCFCE016ADCE8CFDF91CF91089530
:10174000CF93DF9390E0FC01E053FE4F2491FC0126
:10175000E657FE4F8491882361F190E0880F991F2E
:10176000FC01E45CFE4FC591D491FC01EA5AFE4FA6
:10177000A591B491611109C09FB7F8948881209513
:1017800082238883EC912E230BC0623061F49FB7D3
:10179000F8948881322F309583238883EC912E2B07
:1017A0002C939FBF06C08FB7F894E8812E2B288317
:1017B0008FBFDF91CF9108951F93CF93DF93182FA1
:1017C000EB0161E0BDDF209711F460E004C0CF3F82
:1017D000D10539F461E0812FDF91CF911F910C94F5
:1017E0009717E12FF0E0EA5EFD4FE4918E2F90E035
:1017F000FC013197E231F10508F09DC08827EE58D1
:10180000FF4F8F4F0C94A12384B5806884BDC7BD62
:1018100097C084B5806284BDC8BD92C080918000AD
:10182000806880938000D0938900C093880088C02E
:1018300080918000806280938000D0938B00C09361
:101840008A007EC080918000886080938000D09361
:101850008D00C0938C0074C08091B000806880932C
:10186000B000C093B3006CC08091B00080628093E0
:10187000B000C093B40064C08091900080688093F1
:101880009000D0939900C09398005AC08091900026
:10189000806280939000D0939B00C0939A0050C0C8
:1018A00080919000886080939000D0939D00C093B9
:1018B0009C0046C08091A00080688093A000809129
:1018C000A0008F7B8093A000D093A900C093A800B4
:1018D00037C08091A00080628093A000D093AB00BD
:1018E000C093AA002DC08091A00088608093A000C2
:1018F000D093AD00C093AC0023C0809120018068DC
:1019000080932001D0932901C093280119C08091B0
:101910002001806280932001D0932B01C0932A0183
:101920000FC080912001886080932001D0932D0109
:10193000C0932C0105C0C038D1050CF04BCF45CF6A
:10194000DF91CF911F9108952FB7F8946091BA0657
:101950007091BB068091BC069091BD062FBF089583
:101960001F920F920FB60F9211242F933F938F93D4
:101970009F93AF93BF938091BA069091BB06A091BD
:10198000BC06B091BD063091B90623E0230F2D3778
:1019900020F40196A11DB11D05C026E8230F029673
:1019A000A11DB11D2093B9068093BA069093BB0682
:1019B000A093BC06B093BD068091BE069091BF0671
:1019C000A091C006B091C1060196A11DB11D8093E2
:1019D000BE069093BF06A093C006B093C106BF9108
:1019E000AF919F918F913F912F910F900FBE0F90CC
:1019F0001F9018951F920F920FB60F9211240BB6DD
:101A00000F922F933F934F935F936F937F938F9397
:101A10009F93AF93BF93EF93FF93E0910E02F091EA
:101A20000F021995FF91EF91BF91AF919F918F9107
:101A30007F916F915F914F913F912F910F900BBECE
:101A40000F900FBE0F901F9018951F920F920FB618
:101A50000F9211240BB60F922F933F934F935F93E6
:101A60006F937F938F939F93AF93BF93EF93FF9366
:101A7000E0910C02F0910D021995FF91EF91BF9149
:101A8000AF919F918F917F916F915F914F913F9116
:101A90002F910F900BBE0F900FBE0F901F901895B7
:101AA0001F920F920FB60F9211240BB60F922F9325
:101AB0003F934F935F936F937F938F939F93AF93D6
:101AC000BF93EF93FF93E0910202F0910302199507
:101AD000FF91EF91BF91AF919F918F917F916F9106
:101AE0005F914F913F912F910F900BBE0F900FBEC2
:101AF0000F901F9018951F920F920FB60F921124FE
:101B00000BB60F922F933F934F935F936F937F93F7
:101B10008F939F93AF93BF93EF93FF93E091000256
:101B2000F09101021995FF91EF91BF91AF919F91B3
:101B30008F917F916F915F914F913F912F910F9076
:101B40000BBE0F900FBE0F901F9018951F920F9213
:101B50000FB60F9211240BB60F922F933F934F9312
:101B60005F936F937F938F939F93AF93BF93EF9305
:101B7000FF93E0910A02F0910B021995FF91EF910A
:101B8000BF91AF919F918F917F916F915F914F9195
:101B90003F912F910F900BBE0F900FBE0F901F9093
:101BA00018951F920F920FB60F9211240BB60F9239
:101BB0002F933F934F935F936F937F938F939F9355
:101BC000AF93BF93EF93FF93E0910802F091090266
:101BD0001995FF91EF91BF91AF919F918F917F9157
:101BE0006F915F914F913F912F910F900BBE0F908E
:101BF0000FBE0F901F9018951F920F920FB60F9265
:101C000011240BB60F922F933F934F935F936F93D3
:101C10007F938F939F93AF93BF93EF93FF93E09145
:101C20000602F09107021995FF91EF91BF91AF91D4
:101C30009F918F917F916F915F914F913F912F91E4
:101C40000F900BBE0F900FBE0F901F9018951F9214
:101C50000F920FB60F9211240BB60F922F933F9352
:101C60004F935F936F937F938F939F93AF93BF93A4
:101C7000EF93FF93E0910402F09105021995FF9113
:101C8000EF91BF91AF919F918F917F916F915F91F4
:101C90004F913F912F910F900BBE0F900FBE0F9061
:101CA0001F9018951F920F920FB60F9211240BB62A
:101CB0000F922F933F934F935F936F937F938F93E5
:101CC0009F93AF93BF93EF93FF9382EC96E09ED9DF
:101CD000FF91EF91BF91AF919F918F917F916F9104
:101CE0005F914F913F912F910F900BBE0F900FBEC0
:101CF0000F901F9018951F920F920FB60F921124FC
:101D00000BB60F922F933F934F935F936F937F93F5
:101D10008F939F93AF93BF93EF93FF9382EC96E0E3
:101D20000E945617FF91EF91BF91AF919F918F91B4
:101D30007F916F915F914F913F912F910F900BBECB
:101D40000F900FBE0F901F9018951F920F920FB615
:101D50000F9211240BB60F922F933F934F935F93E3
:101D60006F937F938F939F93AF93BF93EF93FF9363
:101D70008FE597E04BD9FF91EF91BF91AF919F9184
:101D80008F917F916F915F914F913F912F910F9024
:101D90000BBE0F900FBE0F901F9018951F920F92C1
:101DA0000FB60F9211240BB60F922F933F934F93C0
:101DB0005F936F937F938F939F93AF93BF93EF93B3
:101DC000FF938FE597E00E945617FF91EF91BF9127
:101DD000AF919F918F917F916F915F914F913F91C3
:101DE0002F910F900BBE0F900FBE0F901F90189564
:101DF0001F920F920FB60F9211240BB60F922F93D2
:101E00003F934F935F936F937F938F939F93AF9382
:101E1000BF93EF93FF938CEF97E0F8D8FF91EF918A
:101E2000BF91AF919F918F917F916F915F914F91F2
:101E30003F912F910F900BBE0F900FBE0F901F90F0
:101E400018951F920F920FB60F9211240BB60F9296
:101E50002F933F934F935F936F937F938F939F93B2
:101E6000AF93BF93EF93FF938CEF97E00E945617C9
:101E7000FF91EF91BF91AF919F918F917F916F9162
:101E80005F914F913F912F910F900BBE0F900FBE1E
:101E90000F901F90189585E694E0089586E894E0E9
:101EA0000895FC01DB014D915D916D917C9113973B
:101EB000428353836483758314964D915D916D9134
:101EC0007C911797468357836087718718964D9149
:101ED0005D916D917C911B974287538764877587CD
:101EE0001C964D915D916D917C911F974687578708
:101EF000608B718B50968D919D910D90BC91A02D12
:101F0000828B938BA48BB58B84E190E00895FC01C8
:101F1000DB014C9150E060E070E0428353836483C6
:101F2000758311968C911197582B42835383648348
:101F3000758312968C911297682B42835383648326
:101F4000758313968C911397782B42835383648304
:101F5000758314964D915D916D917C911797468391
:101F600057836087718718964D915D916D917C9133
:101F70001B974287538764877587BD01645F7F4FD6
:101F8000CF010E968EDF0C960895DC01FB011296B0
:101F90003C91129713962C91139714969C91149739
:101FA00015968C911597308321839283838316969F
:101FB0003C91169717962C91179718969C91189705
:101FC00019968C91199734832583968387831A9663
:101FD0003C911A971B962C911B971C969C911C97D1
:101FE0001D968C911D9730872187928783871E9637
:101FF0003C911E971F962C911F9750969C9150973D
:1020000051968C915197348725879687878752966A
:102010003C91529753962C91539754969C91549778
:1020200055968C91308B218B928B838B84E190E041
:102030000895DC01FB0112968C9112978083139610
:102040008C911397818314968C91149782831596A3
:102050008C911597838316963C91169717962C9121
:10206000179718969C91189719968C911997348305
:102070002583968387831A963C911A971B962C91F9
:102080001B971C969C911C971D968C911D973087D1
:10209000218792878387645F7F4FCD010E9675DF1E
:1020A0000C9608958EE994E008958FEB94E00895DE
:1020B0008FEC94E0089588E792E0089580EF94E033
:1020C000089581E195E0089584E295E0089585E41E
:1020D00095E008958EE595E008958FE795E00895E1
:1020E000FC01DB014C9150E060E070E042835383DF
:1020F0006483758311968C911197582B4283538377
:102100006483758312968C911297682B4283538354
:102110006483758313968C911397782B4283538332
:102120006483758314964C91149750E060E070E0DE
:10213000468357836087718715968C911597582B26
:10214000468357836087718716968C911697682B04
:10215000468357836087718717968C91782B4683C7
:1021600057836087718788E090E00895DC01FB0168
:1021700012968C911297808313968C91139781837A
:1021800014968C911497828315968C91159783835E
:1021900016968C911697848317968C911797858342
:1021A00018968C911897868319968C91878388E06E
:1021B00090E008954F925F926F927F928F929F92DC
:1021C000AF92BF92EF92FF920F931F93CF93DF9343
:1021D00000D01F92CDB7DEB77C018B01FB0180815F
:1021E00090E0A0E0B0E0F70182839383A483B583FD
:1021F000FB012181922BF70182839383A483B58312
:10220000FB012281A22BF70182839383A483B583F0
:10221000FB012381B22BF70182839383A483B583CF
:10222000FB01848190E0A0E0B0E0F7018683978312
:10223000A087B187FB012581922BF70186839783C5
:10224000A087B187FB012681A22BF70186839783A4
:10225000A087B187FB012781B22BF7018683978383
:10226000A087B187FB01808590E0A0E0B0E0F70196
:1022700082879387A487B587FB012185922BF7017D
:1022800082879387A487B587FB012285A22BF7015C
:1022900082879387A487B587FB012385B22BF7013B
:1022A00082879387A487B587645F7F4FCE010196AD
:1022B00093D889819A81AB81BC814C015D01F0E1A9
:1022C0008F0E911CA11CB11CA801415F5F4FFA0148
:1022D00020E130E02901612C712C481459046A0472
:1022E0007B0428F4618161932F5F3F4FF3CFF801A6
:1022F000E80FF91F1786F7015787468740960F901A
:102300000F900F900F90DF91CF911F910F91FF9041
:10231000EF90BF90AF909F908F907F906F905F9065
:102320004F9008954F925F926F927F928F929F92FB
:10233000AF92BF92EF92FF920F931F93CF93DF93D1
:1023400000D01F92CDB7DEB77C018B01FB018191DC
:10235000BF01F7018283CE0101963ED889819A811F
:10236000AB81BC814C015D01F5E08F0E911CA11C7D
:10237000B11CA8014C5F5F4FFA0125E030E0290154
:10238000612C712C481459046A047B0428F461817F
:1023900061932F5F3F4FF3CFF801E80FF91F1482CD
:1023A000F7015483438305960F900F900F900F9081
:1023B000DF91CF911F910F91FF90EF90BF90AF9061
:1023C0009F908F907F906F905F904F9008954F9265
:1023D0005F926F927F928F929F92AF92BF92CF92B5
:1023E000DF92EF92FF920F931F93CF93DF93CDB7BE
:1023F000DEB72C970FB6F894DEBF0FBECDBF7C01C1
:102400008B01DB018C9190E0F7019383828311961D
:102410002C91922B938382836E5F7F4FCE01019626
:102420000E94EC0989809A80AB80BC802401350130
:10243000F6E04F0E511C611C711C98012B5F3F4F41
:10244000F90186E090E0AC0160E070E044155505CC
:102450006605770520F4418141930196F4CFF80198
:10246000E80DF91D1582D70115963C932E9314970C
:10247000B4016A5F7F4F600F711FCE0105960E9405
:10248000EC09BAE08B0E911C4D805E806F807884E1
:10249000A401092C000C660B770B440D551D661D1D
:1024A000771DD801A80DB91DCD01801B910B5C01D2
:1024B000C12CD12CA416B506C606D70628F48D91DA
:1024C000FD0132978083F0CF5401A40CB51CB801F4
:1024D0006A0D7B1DFB0131971082C4010197800FAB
:1024E000911FF70197838683CE0109960E94EC091C
:1024F00095012C5F3F4F89859A85AB85BC85290165
:10250000032E000C66087708480E591E6A1E7B1EB3
:10251000F5013396E00FF11FA9014A01A12CB12C5E
:1025200084149504A604B70428F4618161934F5F75
:102530005F4FF3CF820F931FF801E80FF91FDF0100
:1025400011971C9221503109020F131FD7011996C0
:102550001C930E9318972181428150E060E070E057
:10256000BA0155274427522B2081422B2381722BFD
:10257000F701428753876487758704962C960FB6B8
:10258000F894DEBF0FBECDBFDF91CF911F910F91A9
:10259000FF90EF90DF90CF90BF90AF909F908F9083
:1025A0007F906F905F904F900895EF92FF920F93FE
:1025B0001F93CF93DF938C01EB01FC018281888311
:1025C0008381898384818A8385818B8386818C83BF
:1025D00087818D8380858E8381858F83828588879F
:1025E0008385898784858A8785858B87A685B78536
:1025F000FD0101900020E9F731977F01EA1AFB0AFB
:10260000A70160E070E0CE010C960E941A0AF80162
:1026100066857785A701CE0140960E94C225C70135
:102620004096DF91CF911F910F91FF90EF90089509
:102630004F925F926F927F92AF92BF92CF92DF9252
:10264000EF92FF920F931F93CF93DF93EC018B01D7
:102650008A81FB0180838B8181838C8182838D8140
:102660008383DB0140E050E0BA01E4E0F0E014963F
:10267000CA80DB80EC80FD80CF0104964C155D059F
:102680006E057F05C8F42A853B85E20FF31F34975A
:10269000D080F18032812381DC921196FC921197D7
:1026A00012963C93129713962C931397FC014F5F4D
:1026B0005F4F6F4F7F4FDBCF5F01A00EB11E2C85A8
:1026C000F50120832D8521832E8522832F85238369
:1026D000D50140E050E0BA01CC84DD84EE84FF8473
:1026E0009C012C5F3F4F4C155D056E057F05F8F48E
:1026F000CD018A199B09EC88FD888E0D9F1DFC0178
:10270000D080E180F28083811496DC921497159634
:10271000EC9215971696FC92169717968C9317972E
:10272000C9014F5F5F4F6F4F7F4F1496D5CFF801B0
:10273000E80FF91F8E8980838F898183888D82833A
:10274000898D83837901A12CB12C412C512C32012C
:102750008E899F89A88DB98D481659066A067B0611
:1027600080F5EC8DFD8DEA0DFB1DA081B181FD0191
:1027700001900020E9F731976F01CA1ADB0AA60120
:1027800060E070E0C8018E0D9F1D0E941A0AF4E0FF
:10279000EF0EF11CEC8DFD8DEA0DFB1D608171814A
:1027A000A601C8018E0D9F1D0E94C225EC0CFD1CC8
:1027B0008FEF481A580A680A780AE2E0AE0EB11C98
:1027C000C7CFC701DF91CF911F910F91FF90EF907D
:1027D000DF90CF90BF90AF907F906F905F904F90C1
:1027E0000895EF92FF920F931F93CF93DF938C0185
:1027F0007B01DC0112962C911297FB012193CF01F2
:102800001396ED91FC911497EF0109900020E9F7E0
:102810002197CE1BDF0BAE0160E070E00E941A0A28
:10282000D80113966D917C911497AE01C70105965E
:102830000E94C225CE010596DF91CF911F910F9185
:10284000FF90EF900895CF92DF92EF92FF920F9357
:102850001F93CF93DF937C018B01DC0112968C9147
:102860001297FB01808313968C91139781831496A2
:10287000ED91FC911597EF0109900020E9F7219760
:10288000CE1BDF0BAE0160E070E0C80102960E9433
:102890001A0AD70114966D917C911597AE01C80163
:1028A00006960E94C225CE010696F701A681B78141
:1028B000FD0101900020E9F731976F01CA1ADB0A88
:1028C000A60160E070E0800F911F0E941A0A2A960C
:1028D000D70116966D917C911797A601C8018C0FB0
:1028E0009D1F0E94C225CC0DDD1DD7011896ED91CC
:1028F000FC911997DF010D900020E9F711976D0108
:10290000CE1ADF0AA60160E070E0C8018C0F9D1F9F
:102910000E941A0A2496F70160857185A601C801F4
:102920008C0F9D1F0E94C225C6018C0F9D1FD701D1
:102930001A966C911A971B964C911B971C963C917A
:102940001C971D962C91F801E80FF91F60834183B5
:10295000328323830496DF91CF911F910F91FF90D3
:10296000EF90DF90CF9008952F923F924F925F9219
:102970006F927F928F929F92AF92BF92CF92DF928F
:10298000EF92FF920F931F93CF93DF93CDB7DEB7F4
:1029900060970FB6F894DEBF0FBECDBF8C016B0100
:1029A000DB018D909D90AD90BC90FC018281938164
:1029B000A481B58188159905AA05BB0570F4B401F9
:1029C000660F771F660F771F828593850E94DE242E
:1029D000D8011B969C938E931A97F801828293825A
:1029E000A482B5829601812C912C540144E050E0E0
:1029F000B8016A5F7F4F2C5F3F4FF801828193815E
:102A0000A481B581FA0134961F0188169906AA0699
:102A1000BB0650F5D9011196FC90119712968C9136
:102A200090E0A0E0B0E0DC01992788279F29F90118
:102A3000F0808F29F380BF29F80186839783A087D0
:102A4000B187DA01A101149782859385A80FB91F78
:102A500084E0FB0101900D928A95E1F7FFEF8F1A58
:102A60009F0AAF0ABF0AC7CF4601840E951ED40144
:102A70008C9111969C91119712964C901297512C13
:102A8000612C712C320155244424592A482A13966A
:102A90008C91782A5F01F80184859585A685B78594
:102AA00084159505A605B70570F4B201660F771F6A
:102AB000660F771F848995890E94DE24D801559678
:102AC0009C938E935497F801448655866686778644
:102AD000C401412C512C32019801205F3F4FD80195
:102AE0001C964D915D916D917C911F97F5013496E7
:102AF000441655066606770698F5DC011596FC9097
:102B0000159716964C91169750E060E070E0BA0168
:102B1000552744275F291496FC9014974F29179640
:102B2000FC907F29D80150964D935D936D937C93D3
:102B300053975F01AC014819590954960D90BC9107
:102B4000A02DA40FB51F44E0F90101900D924A9504
:102B5000E1F7BFEF4B1A5B0A6B0A7B0A0496BFCF03
:102B6000D601AA0DBB1D8C9111969C9111971296BE
:102B70008C901297912CA12CB12C5401992488246B
:102B8000992A882A13968C91B82A7F01F8018689A0
:102B90009789A08DB18D88159905AA05BB0560F4AC
:102BA000B401660F771F848D958D0E94DE24D801B5
:102BB0005D969C938E935C97F801868A978AA08E87
:102BC000B18E212C312C812C912C54019801265E40
:102BD0003F4F3A872987F80186899789A08DB18D63
:102BE00088169906AA06BB0608F05FC0B6016E0DEE
:102BF0007F1DCE0101960E94EC0997012C5F3F4F8B
:102C0000388B2F8749815A816B817C81C901330FB1
:102C1000AA0BBB0B2C013D01440E551E661E771EF0
:102C20004B865C866D867E8623E0E20EF11CF60103
:102C3000EE0DFF1D2F853889C901A0E0B0E04B845F
:102C40005C846D847E8484159505A605B70528F4FB
:102C5000A181A1932F5F3F4FEFCF6F847888460DFE
:102C6000571DF601E40FF51F31971082C30101973C
:102C70008C0D9D1DD8015B969C938E935A977A017B
:102C80005C96ED91FC915D97E20DF31DA985BA85E7
:102C90008D919C9191838083BFEF8B1A9B0AAB0A25
:102CA000BB0AE2E02E0E311C96CFC70160960FB62C
:102CB000F894DEBF0FBECDBFDF91CF911F910F9172
:102CC000FF90EF90DF90CF90BF90AF909F908F904C
:102CD0007F906F905F904F903F902F900895AB0141
:102CE000FC01A681B78164817581ED91FC911197FA
:102CF0000190F081E02DCD01199490E0FC01319715
:102D0000E231F10508F04EC08827EC57FF4F8F4F96
:102D10000C94A123809180008F7703C08091800064
:102D20008F7D80938000089580918000877FF9CF08
:102D300084B58F7702C084B58F7D84BD089580915E
:102D4000B0008F7703C08091B0008F7D8093B0007A
:102D50000895809190008F7707C0809190008F7DBB
:102D600003C080919000877F8093900008958091A8
:102D7000A0008F7707C08091A0008F7D03C0809155
:102D8000A000877F8093A0000895809120018F7715
:102D900007C0809120018F7D03C080912001877F33
:102DA000809320010895E82FF0E0EE0FFF1FE05020
:102DB000FE4F7183608390E088309105F0F5FC014F
:102DC0008827EA56FF4F8F4F0C94A123809169000A
:102DD000836080936900E89A0895809169008C600F
:102DE00080936900E99A08958091690080638093D7
:102DF0006900EA9A089580916900806C8093690067
:102E0000EB9A089580916A00836080936A00EC9A3F
:102E1000089580916A008C6080936A00ED9A08950D
:102E200080916A00806380936A00EE9A0895809191
:102E30006A00806C80936A00EF9A08950F931F9345
:102E4000CF93DF93CDB7DEB72A970FB6F894DEBFE6
:102E50000FBECDBF8C0188E992E09A8389831B82E3
:102E60001C821D821E821F82188619861A86D8012E
:102E7000ED91FC910190F081E02DAE014F5F5F4F2D
:102E80006AE070E0C80119950E94A40CF8016087FF
:102E90007187828793872A960FB6F894DEBF0FBE9C
:102EA000CDBFDF91CF911F910F910895FC01A089B3
:102EB000B1898C91A689B78982FD0FC09C91818DC3
:102EC0008F5F8F73228D821749F0218DDF01A20F52
:102ED000B11D5D969C93818F08958C910895CF9339
:102EE000DF93282F30E0F901EA5EFD4F8491F9016C
:102EF000E053FE4FD491F901E657FE4FC491CC2325
:102F000089F08111FADEEC2FF0E0EE0FFF1FE0599F
:102F1000FE4FA591B491EC91ED2381E090E021F476
:102F200080E002C080E090E0DF91CF9108951F9390
:102F3000CF93DF93282F30E0F901EA5EFD4F8491B3
:102F4000F901E053FE4FD491F901E657FE4FC491C9
:102F5000CC23B9F0162F8111D0DEEC2FF0E0EE0F6C
:102F6000FF1FEA5AFE4FA591B4919FB7F894111133
:102F700004C08C91D095D82302C0EC91DE2BDC9359
:102F80009FBFDF91CF911F9108959F92AF92BF9203
:102F9000CF92DF92EF92FF920F931F93CF93DF9325
:102FA000EC01FC01EC58FF4F608385E0982E969E63
:102FB000F0011124E65AFD4F80818E0102591F4F06
:102FC000D8018C935E01BFE6AB0EB11C9181D50197
:102FD0009C93119692819C936E01B1E7CB0ED11C0C
:102FE0009381D6019C937E01B2E7EB0EF11C948194
:102FF000F70190833697108262E00E94A00B62E096
:10300000D5018C910E94A00B61E0F60180810E94A5
:10301000A00B61E0D7018C910E94A00B1EA21FA201
:1030200018A619A684EF91E099878887188289E00D
:1030300090E09B838A8388E691E1ADE1B2E48E8BD8
:103040009F8BA88FB98FF8018081823119F4359652
:1030500090821AC0833111F484E003C0843131F4CA
:1030600083E0FE01ED58FF4F80830EC0853111F4DF
:1030700082E0F7CF833011F481E0F3CF823021F486
:10308000FE01ED58FF4F108260E070E0CE010E941B
:1030900094091EA21FA218A619A60E94A40CC95822
:1030A000DF4F688379838A839B83DF91CF911F9160
:1030B0000F91FF90EF90DF90CF90BF90AF909F90D7
:1030C0000895CF93DF93CDB7DEB72E970FB6F89460
:1030D000DEBF0FBECDBF789484B5826084BD84B559
:1030E000816084BD85B5826085BD85B5816085BD03
:1030F00080916E00816080936E00109281008091BB
:103100008100826080938100809181008160809342
:103110008100809180008160809380008091B10067
:1031200084608093B1008091B00081608093B00092
:1031300080919100826080939100809191008160E4
:1031400080939100809190008160809390008091A5
:10315000A10082608093A1008091A1008160809392
:10316000A1008091A00081608093A0008091210146
:1031700082608093210180912101816080932101EF
:103180008091200181608093200180917A00846089
:1031900080937A0080917A00826080937A00809197
:1031A0007A00816080937A0080917A0080688093B1
:1031B0007A001092C1008091F10E883018F468EF07
:1031C00073E0F1DD8091700E883018F46AED73E0E1
:1031D000EADD81E0809380008AE08093810083E0D3
:1031E0008093B00012E01093B1000E94910A6093A6
:1031F000AD067093AE068093AF069093B0060E9422
:10320000910A6093B1067093B2068093B3069093CF
:10321000B4061092F1081092F2081092F30810927E
:10322000F4081092ED081092EE081092EF08109238
:10323000F0088FE594E09093F6088093F508E0910C
:10324000F70DF091F80D1082118212821382E09135
:10325000F50DF091F60D1082118212821382C0904A
:103260004309D0904409E0904509F0904609209127
:103270004109309142093A83298360E079E08DE386
:1032800090E0A70196010E944C22DA01C901019742
:10329000A109B109B695A795979587959C01A98134
:1032A000BA815096ED91FC9151971083C114B1EE03
:1032B000DB06E104F10421F02115E0E13E07C8F04E
:1032C000A981BA815096ED91FC915197108260E8E6
:1032D00074E88EE190E0A70196010E944C22DA0189
:1032E000C9010197A109B109B695A7959795879549
:1032F0009C01A981BA811C96ED91FC911D973083A8
:103300001E96ED91FC911F97208358961C9258971A
:103310005496ED91FC91559786E080835296ED91FD
:10332000FC9153978081806180835296ED91FC914E
:1033300053978081886080835296ED91FC915397DA
:103340008081806880835296ED91FC9153978081B3
:103350008F7D80831092BC0D1092BB0D1092BE0D1C
:103360001092BD0D1092C20D1092C10D1092C00DA1
:103370001092BF0DE7E5FDE0FA83E98380E090E07D
:1033800021913191232BB1F4FC01EE0FFF1FE95A7B
:10339000F24F2BED38E03183208383589F4F909379
:1033A000E0088093DF088FE399E09093E208809330
:1033B000E10804C001968931910511F7E7E5FDE0C8
:1033C00080E090E021913191232BB1F4FC01EE0FCC
:1033D000FF1FE95AF24F2FEC38E0318320838358E6
:1033E0009F4F9093D4088093D3088FE399E09093F4
:1033F000D6088093D50804C001968931910511F74C
:10340000A9E8BDE0FD0180E090E021913191232BFE
:1034100081F4FC01EE0FFF1FE757F24F26EB38E077
:10342000318320838C599F4F9093B9088093B808BB
:1034300004C001968931910541F780E090E0E9816F
:10344000FA8121913191FA83E983232BB1F4FC01B4
:10345000EE0FFF1FE95AF24F2AEA38E0318320834A
:1034600083589F4F9093AF088093AE088FE399E005
:103470009093B1088093B00804C0019689319105FA
:10348000F1F680E090E02D913D91232B81F4FC0139
:10349000EE0FFF1FE757F24F29E938E03183208311
:1034A0008C599F4F90939C0880939B0804C0019671
:1034B0008931910541F70E94910A6093B506709396
:1034C000B6068093B7069093B8068FE399E00E9402
:1034D00056044091B5065091B6066091B7067091BA
:1034E000B8068091B1069091B206A091B306B09152
:1034F000B4069A01AB01281B390B4A0B5B0BA8EEF3
:10350000B3E0C0D70091F1081091F2082091F308C0
:103510003091F408DC01CB01800F911FA21FB31F73
:103520008093F1089093F208A093F308B093F40805
:103530008130FAEC9F07FAE9AF07FBE3BF07F8F029
:103540000091ED081091EE082091EF083091F008FD
:103550000F5F1F4F2F4F3F4F0093ED081093EE0862
:103560002093EF083093F0089A5CAA49BB438093FC
:10357000F1089093F208A093F308B093F408E09157
:10358000F30DF091F40D80819181A281B38180933C
:10359000F9089093FA08A093FB08B093FC08808583
:1035A0009185A285B3858093FD089093FE08A09332
:1035B000FF08B093000984859585A685B78580931B
:1035C000010990930209A0930309B0930409E091C3
:1035D000F70DF091F80D84819581A681B7818093D4
:1035E000070990930809A0930909B0930A098081FB
:1035F0009181A281B38180930B0990930C09A093D0
:103600000D09B0930E09E091FB0DF091FC0D808146
:103610009181A281B38180930F0990931009A093A7
:103620001109B093120984819581A681B781809395
:10363000130990931409A0931509B0931609808576
:103640009185A285B3858093170990931809A0935B
:103650001909B0931A09E091F10DF091F20D8081F2
:103660009181A281B38180931D0990931E09A0933B
:103670001F09B093200980859185A285B385809329
:10368000210990932209A0932309B09324098485EA
:103690009585A685B7858093250990932609A093E3
:1036A0002709B0932809E091F50DF091F60D84817A
:1036B0009581A681B78180932B0990932C09A093C3
:1036C0002D09B0932E0980819181A281B3818093CD
:1036D0002F0990933009A0933109B0933209E091FA
:1036E000F90DF091FA0D80819181A281B3818093CF
:1036F000330990933409A0933509B0933609848136
:103700009581A681B7818093370990933809A0935A
:103710003909B0933A0980859185A285B385809354
:103720003B0990933C09A0933D09B0933E0965EE97
:1037300078E08BED98E0D3DA4091B5065091B6066B
:103740006091B7067091B8064093B1065093B206E7
:103750006093B3067093B4068091AD069091AE0667
:103760009A01281B390BC90137FF03C09195819538
:103770009109803197420CF4DEC14093AD0650931D
:10378000AE066093AF067093B0068091F30D9091F2
:10379000F40D0E94370A8091F10D9091F20D0E9474
:1037A000370A0091F70D1091F80DE091F30DF091AB
:1037B000F40D2485358546855785D8016D917D9119
:1037C0008D919C919AD66B017C01F8012481358101
:1037D0004681578192D6D80118966D937D938D932B
:1037E0009C931B97F801C482D582E682F7822090D1
:1037F000F50D3090F60DE091F10DF091F20D24856C
:10380000358546855785D1016D917D918D919C912E
:1038100074D669837A838B839C83F10124813581FB
:10382000468157816AD669877A878B879C87D101C1
:1038300018966D937D938D939C931B9789819A81A4
:10384000AB81BC81F10184839583A683B7832091EA
:10385000FB0D3091FC0D3E872D87D80118964D90B9
:103860005D906D907C901B9714968D919D910D901D
:10387000BC91A02D8D839E83AF83B887F9012489E5
:10388000358946895789BC01CD0138D66B017C0149
:10389000AD85BE8554966D937D938D939C9357977C
:1038A00018962D913D914D915C911B9737D52AE04B
:1038B00037ED43E25CE332D54B015C01ED85FE85DB
:1038C00020813181428153816D817E818F819885F4
:1038D00025D59B01AC01C501B40110D64B015C019B
:1038E000AD85BE8514962D913D914D915C911797B4
:1038F000C301B20113D52AE037ED43E25CE362D69F
:103900009B01AC01C501B401F9D5962EA72EB82EA6
:10391000892EED85FE856484558446847784262D22
:10392000352D442D572DE7D687FF11C0ED85FE8537
:103930006088518842887388262D352D442D572D57
:10394000692D7A2D8B2D982D84D418169CF02D81FD
:103950003E814F815885C701B601CFD5AD85BE8563
:1039600054966D937D938D939C935797962CA52C8D
:10397000B42C872C892D9A2DAB2DB82DF801848776
:103980009587A687B7872091F90D3091FA0D3E8370
:103990002D83D90154962D913D914D915C9157976E
:1039A00069817A818B819C81A9D56B017C01ED8134
:1039B000FE81648B758B868B978B20853185428544
:1039C0005385ACD42AE037ED43E25CE3A7D44B0146
:1039D0005C01AD81BE812D913D914D915C916981DC
:1039E0007A818B819C819AD49B01AC01C501B40181
:1039F00085D54B015C01ED81FE81248135814681B5
:103A0000578169857A858B859C8588D42AE037ED36
:103A100043E25CE3D7D59B01AC01C501B4016ED58F
:103A20004B015C01AD81BE811C964C901C971D968C
:103A30005C901D971E966C901E971F967C9092012D
:103A4000A30159D687FF14C0AD81BE8150964C901A
:103A5000509751965C90519752966C90529753960E
:103A60007C909201A301B401C501F3D318167CF038
:103A700029813A814B815C81C701B6013ED5ED8138
:103A8000FE81648B758B868B978B42015301C40139
:103A9000D501F10184879587A687B787D8011C9641
:103AA0006D917D918D919C911F97F4D521E330E02C
:103AB000261B370B2336310590F09B0177FF04C09E
:103AC00022273327261B370B2F3F310509F054F4EB
:103AD000EE27FF27E61BF70BFA83E98307C01A825C
:103AE000198204C02FEF30E03A832983B401C50165
:103AF000D1D58B019B012F5C3F4F2336310570F0F0
:103B00009B0177FF04C022273327261B370B2F3F4B
:103B1000310531F02CF00FEF10E002C000E010E0B2
:103B200069817A818EE79EE00E949409B8018DEF49
:103B30009DE00E9494090E946D01BDCC4F925F925E
:103B40006F927F928F929F92AF92BF92CF92DF92AD
:103B5000EF92FF921092C5061092C40648EE53E011
:103B600060E070E04093C6065093C7066093C806B5
:103B70007093C90684EA92E09093C3068093C206CC
:103B800025E331E03093CF062093CE0624E331E0E5
:103B90003093D1062093D00620E331E03093D30652
:103BA0002093D20621E331E03093D5062093D4064A
:103BB00022E331E03093D7062093D60626E331E0A6
:103BC0003093D9062093D8061092DB061092DC06BB
:103BD0001092DD061092DE061092620710926107C5
:103BE000409363075093640760936507709366077B
:103BF0009093600780935F0725ED30E030936C076A
:103C000020936B0724ED30E030936E0720936D070F
:103C100020ED30E03093700720936F0721ED30E006
:103C2000309372072093710722ED30E030937407D0
:103C30002093730726ED30E03093760720937507C5
:103C4000109278071092790710927A0710927B07EA
:103C50001092FF071092FE0740930008509301084E
:103C600060930208709303089093FD078093FC070C
:103C700085EC90E0909309088093080884EC90E02C
:103C800090930B0880930A0880EC90E090930D08C5
:103C900080930C0881EC90E090930F0880930E08BD
:103CA00082EC90E0909311088093100886EC90E0ED
:103CB000909313088093120810921508109216081A
:103CC000109217081092180881E090E09093000F6E
:103CD0008093FF0E109201101092021010920310A8
:103CE00010920410109205101092061010920710F6
:103CF000109208101092091010920A1010920B10D6
:103D000010920C1010920D1010920E1010921010B4
:103D100010920F1010921110109212101092131096
:103D20001092141010921510109216101092171075
:103D3000109218101092191061E08EE79EE025D9BC
:103D400064E08DEF9DE021D988E190E016D5FC017B
:103D5000412C512C80E8682E8FE3782E40825182CE
:103D600062827382148215821682178210861186EF
:103D700012861386812C912C9FE7A92E93E4B92EED
:103D800084869586A686B786C12CD12C2FE7E22E95
:103D900023ECF22EC08AD18AE28AF38A148A158A29
:103DA000168A178AF093FC0DE093FB0D88E190E0F2
:103DB000E4D4FC01408251826282738214821582B3
:103DC000168217821086118612861386848695863F
:103DD000A686B786C08AD18AE28AF38A148A158AAF
:103DE000168A178A9093FA0D8093F90D80E190E07E
:103DF000C4D4FC01108211821282138214821582B3
:103E000016821782108611861286138614861586EE
:103E1000168617869093F80D8093F70D80E190E059
:103E2000ACD4FC011082118212821382148215829A
:103E300016821782108611861286138614861586BE
:103E4000168617869093F60D8093F50D80E190E02D
:103E500094D4FC0110821182128213823DEAC32E97
:103E600036E4D32E3AE6E32E32E4F32EC482D58232
:103E7000E682F782108611861286138614861586CE
:103E8000168617869093F40D8093F30D80E190E0F1
:103E900074D4FC011082118212821382C482D582F2
:103EA000E682F7821086118612861386148615869E
:103EB000168617869093F20D8093F10D86E493E0B9
:103EC0009093400980933F098CEF97E090934209CB
:103ED0008093410980E091EEA0E0B0E08093430937
:103EE00090934409A0934509B09346091092C50DDB
:103EF0008EE293E09093D40D8093D30D1092D50D64
:103F00001092D60D1092D70D1092D80D1092DE0D92
:103F10001092DD0D1092DF0D1092E00D1092E10D68
:103F20001092E20D1092E80D1092E70D1092E90D3B
:103F30001092EA0D1092EB0D1092EC0D1092F00D14
:103F40001092EF0D87E59DE0E9E8FDE0DC011D92B0
:103F50001D922DE0A938B207D1F7119211922DE0F0
:103F6000EB3BF207D1F7A7E5B9E0E7E5FBE01D92EF
:103F70002BE0A735B207D9F711928E179F07E1F70B
:103F80001092530910925409109255091092560933
:103F900082E293E09093E6088093E50886E193E05F
:103FA0009093E8088093E7081092E9081092EA08D5
:103FB0001092EB081092EC081092ED081092EE08A7
:103FC0001092EF081092F0081092F1081092F20887
:103FD0001092F3081092F40886EC93E09093F608A0
:103FE0008093F5082AE033E03093F8082093F7082F
:103FF0001092F9081092FA081092FB081092FC082F
:104000001092FD081092FE081092FF08109200090D
:1040100010920109109202091092030910920409EA
:104020008EEF92E09093060980930509109207099C
:10403000109208091092090910920A0910920B09AE
:1040400010920C0910920D0910920E0910920F098E
:10405000109210091092110910921209109213096E
:10406000109214091092150910921609109217094E
:10407000109218091092190910921A0930931C090C
:1040800020931B0910921D0910921E0910921F09FE
:1040900010922009109221091092220910922309EE
:1040A00010922409109225091092260910922709CE
:1040B0001092280990932A098093290910922B09BC
:1040C00010922C0910922D0910922E0910922F098E
:1040D000109230091092310910923209109233096E
:1040E000109234091092350910923609109237094E
:1040F000109238091092390910923A0910923B092E
:1041000010923C0910923D0910923E098DE895E00D
:104110009093DC088093DB0885EE98E09093DE08AE
:104120008093DD081092E4081092E30882EF92E099
:104130009093B7088093B6088AED92E09093BD08FB
:104140008093BC081092BF081092BE081092C0085D
:104150001092C1081092C2081092C3081092C408AD
:104160001092C5081092C6081092C7081092C8088D
:104170001092C9081092CA081092CB0886EE92E0FD
:104180009093CD088093CC081092CE088BE995E0EF
:104190009093D0088093CF082CEC38E03093D2086D
:1041A0002093D10822E030E03093D8082093D7083C
:1041B0009093BB088093BA088FE792E09093DA0857
:1041C0008093D9088EEC92E090939A088093990896
:1041D00086EB92E09093A00880939F081092A2082B
:1041E0001092A1081092A3081092A4081092A5089A
:1041F0001092A60882EC92E09093A8088093A708FA
:104200001092A90883EA95E09093AB088093AA08DE
:1042100047EA58E05093AD084093AC083093B30898
:104220002093B20890939E0880939D0889E592E0C0
:104230009093B5088093B408FF90EF90DF90CF90F3
:10424000BF90AF909F908F907F906F905F904F90B6
:10425000089540D008F481E00895E89409C097FBE0
:104260003EF490958095709561957F4F8F4F9F4F4D
:104270009923A9F0F92F96E9BB279395F695879591
:1042800077956795B795F111F8CFFAF4BB0F11F454
:1042900060FF1BC06F5F7F4F8F4F9F4F16C08823FB
:1042A00011F096E911C0772321F09EE8872F762F31
:1042B00005C0662371F096E8862F70E060E02AF072
:1042C0009A95660F771F881FDAF7880F969587955E
:1042D00097F90895990F0008550FAA0BE0E8FEEF33
:1042E00016161706E807F907C0F012161306E407BA
:1042F000F50798F0621B730B840B950B39F40A26B3
:1043000061F0232B242B252B21F408950A2609F490
:10431000A140A6958FEF811D811D08950BD078C017
:1043200069D028F06ED018F0952309F05AC05FC00C
:104330001124A2C07ED0A0F3959FD1F3950F50E039
:10434000551F629FF001729FBB27F00DB11D639F47
:10435000AA27F00DB11DAA1F649F6627B00DA11DED
:10436000661F829F2227B00DA11D621F739FB00D93
:10437000A11D621F839FA00D611D221F749F332703
:10438000A00D611D231F849F600D211D822F762F9C
:104390006A2F11249F5750408AF0E1F088234AF099
:1043A000EE0FFF1FBB1F661F771F881F91505040E5
:1043B000A9F79E3F510570F014C05EC05F3FECF35B
:1043C000983EDCF3869577956795B795F795E795D1
:1043D0009F5FC1F7FE2B880F911D9695879597F9E2
:1043E000089597F99F6780E870E060E008959FEF77
:1043F00080EC089500240A9416161706180609067C
:10440000089500240A94121613061406050608954A
:10441000092E0394000C11F4882352F0BB0F40F4D2
:10442000BF2B11F460FF04C06F5F7F4F8F4F9F4F12
:10443000089557FD9058440F551F59F05F3F71F094
:104440004795880F97FB991F61F09F3F79F08795FB
:104450000895121613061406551FF2CF4695F1DF84
:1044600008C0161617061806991FF1CF8695710514
:10447000610508940895E894BB2766277727CB0148
:1044800097F908952BD0A59F900DB49F900DA49FF0
:10449000800D911D11240895A1E21A2EAA1BBB1BA9
:1044A000FD010DC0AA1FBB1FEE1FFF1FA217B30700
:1044B000E407F50720F0A21BB30BE40BF50B661F16
:1044C000771F881F991F1A9469F7609570958095DA
:1044D00090959B01AC01BD01CF010895A29FB00151
:1044E000B39FC001A39F700D811D1124911DB29F28
:1044F000700D811D1124911D08955058BB27AA27C6
:104500000ED086CF77DF30F07CDF20F031F49F3F94
:1045100011F41EF46CCF0EF4E095E7FB62CFE92FA7
:1045200088DF80F3BA17620773078407950718F0CE
:1045300071F49EF5A0CF0EF4E0950B2EBA2FA02DAE
:104540000B01B90190010C01CA01A0011124FF2740
:10455000591B99F0593F50F4503E68F11A16F0403B
:10456000A22F232F342F4427585FF3CF469537953A
:104570002795A795F0405395C9F77EF41F16BA0BFF
:10458000620B730B840BBAF09150A1F0FF0FBB1FAD
:10459000661F771F881FC2F70EC0BA0F621F731FF6
:1045A000841F48F4879577956795B795F7959E3F53
:1045B00008F0B3CF9395880F08F09927EE0F9795E1
:1045C000879508950CD024CF1CDF40F013DF30F026
:1045D00021F45F3F19F005CF51114ECF08CF29DFED
:1045E00098F39923C9F35523B1F3951B550BBB27BA
:1045F000AA2762177307840738F09F5F5F4F220F67
:10460000331F441FAA1FA9F333D00E2E3AF0E0E85F
:1046100030D091505040E695001CCAF729D0FE2FAB
:1046200027D0660F771F881FBB1F2617370748073D
:10463000AB07B0E809F0BB0B802DBF01FF279358F3
:104640005F4F2AF09E3F510568F0CBCE15CF5F3FFC
:10465000ECF3983EDCF3869577956795B795F795DB
:104660009F5FC9F7880F911D9695879597F90895D3
:10467000E1E0660F771F881FBB1F6217730784076F
:10468000BA0720F0621B730B840BBA0BEE1F88F77E
:10469000E095089504D06894B111EECE0895D1DE6E
:1046A00088F09F5790F0B92F9927B751A0F0D1F01B
:1046B000660F771F881F991F1AF0BA95C9F712C0A5
:1046C000B13081F0D8DEB1E00895D5CE672F782FD4
:1046D0008827B85F39F0B93FCCF386957795679511
:1046E000B395D9F73EF490958095709561957F4F7D
:1046F0008F4F9F4F0895EEDD08F48FEF0895DB0193
:104700008F939F93BFDEBF91AF91A29F800D911DAC
:10471000A39F900DB29F900D1124089597FB072E33
:1047200016F4009406D077FD08D013D007FC05D00E
:104730003EF4909581959F4F0895709561957F4FB8
:104740000895EE0FFF1F881F8BBF0790F691E02D95
:104750001994AA1BBB1B51E107C0AA1FBB1FA617B8
:10476000B70710F0A61BB70B881F991F5A95A9F71A
:1047700080959095BC01CD0108950F931F93CF9321
:10478000DF938230910510F482E090E0E0911C10FC
:10479000F0911D1020E030E0A0E0B0E0309719F17A
:1047A000408151810281138148175907C8F084174D
:1047B000950769F4109731F012960C93129713969F
:1047C0001C9327C000931C1010931D1022C02115AC
:1047D000310519F04217530718F49A01BD01EF0192
:1047E000DF01F801DBCF21153105F9F0281B390B6A
:1047F0002430310580F48A819B816115710521F097
:10480000FB019383828304C090931D1080931C103E
:10481000FE01329644C0FE01E20FF31F8193919393
:1048200022503109398328833AC020911A103091DF
:104830001B10232B41F4209112023091130230936C
:104840001B1020931A102091100230911102211593
:10485000310541F42DB73EB7409114025091150235
:10486000241B350BE0911A10F0911B10E217F3078F
:10487000A0F42E1B3F0B2817390778F0AC014E5FD0
:104880005F4F2417350748F04E0F5F1F50931B10E2
:1048900040931A108193919302C0E0E0F0E0CF01C1
:1048A000DF91CF911F910F910895CF93DF930097E0
:1048B00009F481C0FC01329713821282A0911C106E
:1048C000B0911D10109781F420813181820F931FC8
:1048D00020911A1030911B102817390751F5F093C9
:1048E0001B10E0931A1067C0ED0120E030E0CE17F6
:1048F000DF0740F44A815B819E0141155105F1F0CB
:10490000EA01F5CFD383C28340815181840F951F83
:10491000C817D90759F488819981840F951F029689
:10492000918380838A819B819383828321153105C2
:1049300029F4F0931D10E0931C103DC0E901FB83A6
:10494000EA8349915991C40FD51FEC17FD0761F413
:1049500080819181840F951F0296E9019983888354
:10496000828193819B838A83E0E0F0E012968D91AF
:104970009C911397009719F0FD01DC01F7CF8D9101
:104980009C9111979D012E5F3F4F820F931F2091A5
:104990001A1030911B102817390769F4309729F441
:1049A00010921D1010921C1002C013821282B0933C
:1049B0001B10A0931A10DF91CF9108956F927F92F0
:1049C0008F929F92AF92BF92CF92DF92EF92FF921F
:1049D0000F931F93CF93DF93009781F4CB01DF9167
:1049E000CF911F910F91FF90EF90DF90CF90BF90EC
:1049F000AF909F908F907F906F90BFCEFC01E60F9D
:104A0000F71F9C0122503109E217F30708F4A5C0F3
:104A1000EC01D9010D911C91119706171707A8F009
:104A20000530110508F497C0C80104978617970749
:104A300008F491C002501109061B170B0193119342
:104A40006D937C93CF0131DF86C05B01A01AB10A60
:104A50004C01800E911EA0911C10B0911D10612C74
:104A6000712CE12CF12C109709F446C08D919C918A
:104A70001197A815B905B1F56C0142E0C40ED11C1F
:104A8000CA14DB0478F14C018A189B08640142E0E7
:104A9000C40ED11C1296BC9012971396AC91B5E03F
:104AA000CB16D10440F0B282A38391828082D901D7
:104AB0006D937C9309C00E5F1F4F800F911FF9010A
:104AC00091838083EB2DFA2FE114F10431F0D701AB
:104AD0001396FC93EE9312973EC0F0931D10E09353
:104AE0001C1039C06816790608F43C017D01129645
:104AF0000D90BC91A02DB7CF80911A1090911B10F2
:104B000088169906E1F466167706C8F480911002BB
:104B100090911102009741F48DB79EB74091140215
:104B200050911502841B950BE817F907B0F4F09328
:104B30001B10E0931A10F901718360830CC0CB0144
:104B40001CDE7C01009749F0A801BE011BD0CE01FC
:104B5000ACDEC70104C0CE0102C080E090E0DF916E
:104B6000CF911F910F91FF90EF90DF90CF90BF906A
:104B7000AF909F908F907F906F90089581E090E02C
:104B8000F89409C0FB01DC0102C001900D92415074
:0A4B90005040D8F70895F894FFCFC5
:104B9A00B60AB60AB60AB60AB60AB60AB60AB60A0B
:104BAA0000001E108000000000002314E7116710A7
:104BBA00641000000000F113921161105E106D6123
:104BCA006B65626C6F636B5F6F646F6D2F53657497
:104BDA0056656C006D616B65626C6F636B5F6F64C9
:104BEA006F6D2F5365745049440000000000001295
:104BFA001F0C222313260825240331092B2A0237E6
:104C0A00053A3B0000000000726F737365726961B8
:104C1A006C5F6D7367732F5265717565737450613C
:104C2A0072616D0000000000B61070106D106A10FD
:104C3A0000000000330BB70AE20A7F0B6101F10A98
:104C4A00050B00000000DD02C402B201AF01000042
:104C5A000000BD02B602B201B30200000000360431
:104C6A00AC01B201AF010000000034030703A9013F
:104C7A00A601000000000003F902A901B302000026
:104C8A0000001604AC01A901A60100000000C50F2E
:104C9A00510F4E0F4B0F000000001910870F7903B8
:104CAA00760300000000D512DA10551052100000E9
:104CBA000000E107BE077303700300000000181329
:104CCA00B4145B10581000000000130B130B130BE5
:104CDA00130B00000000B5015604A1013536363425
:104CEA00353363313162613835626134376635355F
:104CFA0034376236643962613734663200333835A4
:104D0A006264393732373064343466306333666507
:104D1A0030653233393135326166343866004D6573
:104D2A0073736167652066726F6D20646576696367
:104D3A00652064726F707065643A206D6573736183
:104D4A006765206C6172676572207468616E2062A3
:104D5A0075666665722E003335386532333363649F
:104D6A006530633861386263666561346365313919
:104D7A003366386663313500323261326433613406
:104D8A003434396634323033323764313735656218
:104D9A003134316266336238006D616B65626C6F03
:104DAA00636B5F6F646F6D2F4D6F746F72537461B5
:104DBA0074657300343431363236363863613932C9
:104DCA006366653139303431373761333365666547
:104DDA0061323733006D616B65626C6F636B5F6F55
:104DEA00646F6D2F4D6F746F7253746174650072C6
:104DFA006F626F740037613565393034303935394F
:104E0A003961613233333330613033323065623283
:104E1A006165326662006D616B65626C6F636B5FC0
:104E2A006F646F6D2F506964537461746500323119
:104E3A0037366465636165636263653738616263E7
:104E4A003362393665663034396661626564007387
:104E5A0074645F6D7367732F4865616465720039A6
:104E6A0066306539386264613635393831393836F1
:104E7A00646466353361666137613430653439009C
:104E8A003131616264373331633235393333323623
:104E9A0031636436313833626431326436323935DB
:104EAA0000726F7373657269616C5F6D7367732FDC
:104EBA004C6F670030616435316638386663343464
:104ECA003839326638633130363834303737363429
:104EDA003630303500726F7373657269616C5F6D5D
:104EEA007367732F546F706963496E666F006364EA
:104EFA0037313636633734633535326333313166A9
:104F0A0062636332666535613762633238390073CA
:104F1A0074645F6D7367732F54696D65002F6D6FCD
:104F2A00746F725F737461746573007365745F7014
:0C4F3A006964007365745F76656C0000AC
:020000023000CC
:10E000000D9489F10D94B2F10D94B2F10D94B2F129
:10E010000D94B2F10D94B2F10D94B2F10D94B2F1F0
:10E020000D94B2F10D94B2F10D94B2F10D94B2F1E0
:10E030000D94B2F10D94B2F10D94B2F10D94B2F1D0
:10E040000D94B2F10D94B2F10D94B2F10D94B2F1C0
:10E050000D94B2F10D94B2F10D94B2F10D94B2F1B0
:10E060000D94B2F10D94B2F10D94B2F10D94B2F1A0
:10E070000D94B2F10D94B2F10D94B2F10D94B2F190
:10E080000D94B2F10D94B2F10D94B2F10D94B2F180
:10E090000D94B2F10D94B2F10D94B2F10D94B2F170
:10E0A0000D94B2F10D94B2F10D94B2F10D94B2F160
:10E0B0000D94B2F10D94B2F10D94B2F10D94B2F150
:10E0C0000D94B2F10D94B2F10D94B2F10D94B2F140
:10E0D0000D94B2F10D94B2F10D94B2F10D94B2F130
:10E0E0000D94B2F141546D656761323536300041AF
:10E0F000726475696E6F206578706C6F72657220DE
:10E1000073746B3530305632206279204D4C530099
:10E11000426F6F746C6F616465723E004875683F52
:10E1200000436F6D70696C6564206F6E203D200048
:10E130004350552054797065202020203D20005FF9
:10E140005F4156525F415243485F5F3D2000415658
:10E1500052204C696243205665723D20004743437C
:10E160002056657273696F6E203D20004350552024
:10E1700049442020202020203D20004C6F7720663D
:10E18000757365202020203D20004869676820665F
:10E190007573652020203D200045787420667573D6
:10E1A00065202020203D20004C6F636B2066757336
:10E1B000652020203D20004D617220203720323024
:10E1C000313300312E362E3800342E332E350056A2
:10E1D00023202020414444522020206F7020636F70
:10E1E00064652020202020696E73747275637469E1
:10E1F0006F6E2061646472202020496E74657272B3
:10E20000757074006E6F20766563746F7200726A49
:10E210006D702020006A6D70200057686174207056
:10E220006F72743A00506F7274206E6F7420737541
:10E2300070706F72746564004D7573742062652030
:10E2400061206C6574746572002000577269747483
:10E25000696E672045450052656164696E672045B7
:10E26000450045452065727220636E743D00504F35
:10E27000525400303D5A65726F2061646472003FF1
:10E280003D43505520737461747300403D454550C3
:10E29000524F4D207465737400423D426C696E6B41
:10E2A000204C454400453D44756D70204545505215
:10E2B0004F4D00463D44756D7020464C415348001B
:10E2C000483D48656C70004C3D4C69737420492F83
:10E2D0004F20506F72747300513D51756974005234
:10E2E0003D44756D702052414D00563D73686F7707
:10E2F00020696E7465727275707420566563746FF0
:10E30000727300593D506F727420626C696E6B00BD
:10E310002A0011241FBECFEFD1E2DEBFCDBF01E046
:10E320000CBF12E0A0E0B2E0EEE1FDEF03E00BBFB6
:10E3300002C007900D92A030B107D9F712E0A0E01B
:10E34000B2E001C01D92AE30B107E1F70F9460F367
:10E350000D948DFE01E20EBF0FEF0DBF11241FBE05
:10E360000D9460F30D9400F020E030E040ED57E0B4
:10E3700005C0FA013197F1F72F5F3F4F2817390792
:10E38000C0F308959C01260F311DC901A0E0B0E043
:10E390002F5F3F4FABBFFC018791882361F08093D3
:10E3A000C6008091C00086FFFCCF8091C0008064D1
:10E3B0008093C000EACF08958DE08093C6008091DD
:10E3C000C00086FFFCCF8091C00080648093C000B5
:10E3D0008AE08093C6008091C00086FFFCCF8091C8
:10E3E000C00080648093C00008950F94C2F10F9420
:10E3F000DCF10895FC019081992359F09093C600B7
:10E400008091C00086FFFCCF8091C0008064809323
:10E41000C0003196992379F70895282F982F929567
:10E420009F70892F805D8A3308F0895F8093C600D2
:10E430008091C00086FFFCCF8091C00080648093F3
:10E44000C000822F8F70982F905D9A3308F0995FEB
:10E450009093C6008091C00086FFFCCF8091C000E1
:10E4600080648093C00008959C01FB01853691056E
:10E470001CF46330710594F0C90164E670E00F94F8
:10E480002EFE605D7F4F6093C6008091C00086FFC6
:10E49000FCCF8091C00080648093C0002B30310598
:10E4A00014F43297B4F0C90164E670E00F942EFEC4
:10E4B0006AE070E00F942EFE605D7F4F6093C600AF
:10E4C0008091C00086FFFCCF8091C0008064809363
:10E4D000C000C9016AE070E00F942EFEC0968093E0
:10E4E000C6008091C00086FFFCCF8091C000806490
:10E4F0008093C00008951F93182F8EE692EE60E07F
:10E500000F94C2F11093C6008091C00086FFFCCF2B
:10E510008091C00080648093C0000F94DCF11F9153
:10E5200008952F923F924F925F926F927F928F92B7
:10E530009F92AF92BF92CF92DF92EF92FF920F9392
:10E540001F93DF93CF93CDB7DEB762970FB6F894E2
:10E55000DEBF0FBECDBF382E622ECA01DB015C01CB
:10E560006D01772420E2222E2E010894411C511CBB
:10E570008BC081E0A81680E0B80681E0C80680E084
:10E58000D80628F0C601AA27BB270F940DF2BB2797
:10E59000AD2D9C2D8B2D0F940DF28A2D0F940DF225
:10E5A0002092C6008091C00086FFFCCF8091C00001
:10E5B00080648093C0009DE29093C6008091C0006B
:10E5C00086FFFCCF8091C00080648093C0002092C1
:10E5D000C6008091C00086FFFCCF8091C00080649F
:10E5E0008093C00019828601750188249924A1E0D6
:10E5F0003A1651F03A1620F0B2E03B1661F409C029
:10E600000BBFF701779007C0C7010F9477FE782EF4
:10E6100002C0F7017080872D0F940DF22092C60082
:10E620008091C00086FFFCCF8091C0008064809301
:10E63000C000872D8052F401EF70F0708F3520F408
:10E64000E40DF51D708204C0E40DF51D8EE280839B
:10E650000894E11CF11C011D111D0894811C911CE2
:10E6600090E18916910409F0C2CF80E190E0A0E02A
:10E67000B0E0A80EB91ECA1EDB1E198AC2010F9493
:10E68000FAF10F94DCF16A94662009F072CF629679
:10E690000FB6F894DEBF0FBECDBFCF91DF911F91B3
:10E6A0000F91FF90EF90DF90CF90BF90AF909F9031
:10E6B0008F907F906F905F904F903F902F90089534
:10E6C0002F923F924F925F926F927F928F929F9282
:10E6D000AF92BF92CF92DF92EF92FF920F931F9370
:10E6E000DF93CF93CDB7DEB7CD53D1400FB6F894BB
:10E6F000DEBF0FBECDBF01E20EBF0FEF0DBF94B75F
:10E70000F894A89514BE80916000886180936000A1
:10E7100010926000789493FF05C0E0910002F091A0
:10E7200001021995279A2F9A8091C00082608093E8
:10E73000C00080E18093C40088E18093C1000000A4
:10E74000EE24FF24870144E0A42EB12CCC24DD2448
:10E7500024C0C5010197F1F70894E11CF11C011DCB
:10E76000111D21E2E2162EE4F20620E0020720E06D
:10E77000120718F031E0C32ED12CC801B70127ECE5
:10E780003BE140E050E00F9441FE611571058105C9
:10E79000910519F485B1805885B98091C00087FD35
:10E7A00003C0C114D104A9F2A6014F5F5F4FC25E3E
:10E7B000DE4F59834883CE51D140C25EDE4F8881FF
:10E7C0009981CE51D140019711F00D9410FEC05D9A
:10E7D000DE4F19821882C053D14060E0C15DDE4F28
:10E7E0001882CF52D14088249924C35DDE4F19820C
:10E7F0001882CD52D140C05EDE4F188219821A8233
:10E800001B82C052D140CE5CDE4F188219821A8220
:10E810001B82C253D140EE24FF2487010BBFF701B6
:10E8200007911691C45CDE4F19830883CC53D14005
:10E830000D940BFEC25EDE4F28813981CE51D1404E
:10E840002130310509F52091C600C25EDE4F1982E4
:10E850001882CE51D14022C02F5F3F4F4F4F5F4FA4
:10E86000213082E138078AE7480780E0580780F0C6
:10E87000C45CDE4FE881F981CC53D140EF5FFF4F9C
:10E8800019F0EE27FF27099420E030E040E050E047
:10E890008091C00087FFE0CF2091C600C35DDE4FAE
:10E8A00048815981CD52D1404F5F5F4FC35DDE4FEC
:10E8B00059834883CD52D140213209F063C64A3092
:10E8C000510508F05FC60894811C911C53E0851621
:10E8D000910409F059C600E010E018C081E280936D
:10E8E000C6008091C00086FFFCCF8091C00080648C
:10E8F0008093C0002F5F3F4F2931310579F70F9486
:10E90000DCF10F5F1F4F0530110519F020E030E0FA
:10E91000E5CF10920A0210920B0210920C02109294
:10E920000D02109206021092070210920802109235
:10E930000902109202021092030210920402109235
:10E9400005028FEE90EE60E00F94F5F180E191EE1C
:10E9500060E00F94C2F18091C00087FFFCCF9091DE
:10E96000C600903608F09F759032B8F09093C600BC
:10E970008091C00086FFFCCF8091C00080648093AE
:10E98000C000A0E2A093C6008091C00086FFFCCF2B
:10E990008091C00080648093C000983409F4D7C18E
:10E9A0009934B8F4923409F459C1933458F490333B
:10E9B00019F1903308F4E3C59F33A1F1903409F0C5
:10E9C000DEC5BDC0953409F470C1963409F0D7C5D1
:10E9D00098C1923509F42BC2933538F49C3409F46C
:10E9E000F5C1913509F0CBC518C2963509F445C279
:10E9F000993509F0C4C567C483E792EE62E00F94CD
:10EA0000F5F110920602109207021092080210927D
:10EA1000090210920A0210920B0210920C0210923C
:10EA20000D0213C18FE792EE62E00F94F5F18FEEC5
:10EA300090EE60E00F94F5F181E291EE60E00F94CA
:10EA4000C2F187EB91EE60E00F94F5F180E391EE77
:10EA500060E00F94C2F184EE90EE60E00F94F5F167
:10EA60008FE391EE60E00F94C2F186E090E061E008
:10EA700070E00F9434F20F94DCF18DE591EE60E0DC
:10EA80000F94C2F189EC91EE60E00F94F5F18EE401
:10EA900091EE60E00F94C2F183EC91EE60E00F9490
:10EAA000F5F18CE691EE60E00F94C2F18EE10F94E7
:10EAB0000DF288E90F940DF281E00F940DF20F949E
:10EAC000DCF18BE791EE60E00F94C2F119E0E0E039
:10EAD000F0E010935700E4918E2F0F940DF20F94F5
:10EAE000DCF18AE891EE60E00F94C2F1E3E0F0E03F
:10EAF00010935700E4918E2F0F940DF20F94DCF1D8
:10EB000089E991EE60E00F94C2F1E2E0F0E0109349
:10EB10005700E4918E2F0F940DF20F94DCF188EAE8
:10EB200091EE60E00F94C2F1E1E0F0E01093570045
:10EB30001491812F0F940DF20F94DCF107CF8BE825
:10EB400092EE62E00F94F5F18BE492EE60E00F94A8
:10EB5000F5F10F94DCF100E010E019C0C8016F2D51
:10EB60000F947FFEFF2031F489E492EE60E00F9471
:10EB7000C2F10BC0F092C6008091C00086FFFCCFAE
:10EB80008091C00080648093C0000F5F1F4FC80158
